:020000040800F2
:10000000D00800204501000823250008DD1F000856
:100010002125000865090008192B000800000000D0
:10002000000000000000000000000000272500087C
:100030001D0B0008000000002525000829250008E8
:100040005F0100085F0100085F0100085F01000810
:100050005F0100085F0100085F0100085F01000800
:100060005F0100085F0100085F0100085F010008F0
:100070005F0100085F0100085F0100085F010008E0
:100080005F0100085F0100085F0100085F010008D0
:100090005F0100085F0100085F0100085F010008C0
:1000A0005F0100087D2500085F0100085F0100086E
:1000B000892600085F0100085F0100085F01000851
:1000C0005F0100085F0100085F0100085F01000890
:1000D0005F010008012B00080D2B00085F010008DC
:1000E0005F0100085F0100085F0100085F01000870
:1000F0005F0100085F0100085F0100085F01000860
:100100005F0100085F0100085F0100085F0100084F
:100110005F0100085F0100085F0100085F0100083F
:100120005F0100085F0100085F0100085F0100082F
:10013000DFF80CD000F04EFB0048004749520008A1
:10014000D00800200648804706480047FEE7FEE743
:10015000FEE7FEE7FEE7FEE7FEE7FEE7FEE7FEE777
:100160007B25000831010008202A04DB203A21FA0F
:1001700002F00021704721FA02F3D040C2F12002C0
:10018000914008431946704740EA01039B0703D09A
:1001900009E008C9121F08C0042AFAD203E011F8C6
:1001A000013B00F8013B521EF9D27047D2B201E088
:1001B00000F8012B491EFBD270470022F6E710B56C
:1001C00013460A4604461946FFF7F0FF204610BDC5
:1001D000F0B480EA0102D40F4200B2EB410F02D228
:1001E0000246084611464A0042D0C30DDDB2C1F3B3
:1001F000C752AD1A202D35DAC1F3160141F40002C1
:1002000004B15242C5F1200602FA06F12A41104417
:10021000B3EBD05F23D0C4B1012DA0EBC35009DCF8
:10022000F0BC4FF0004202EAC352DBB200F500001E
:1002300000F0EAB8400000F1807000EBC350A0F17C
:10024000807040EAD170490009E0490841EAC07174
:10025000A0EBC35000F50000400800EBC350F0BC19
:1002600000F0C9B86142012202EB4101001BF6E730
:10027000F0BC704781F00041AAE780F00040A7E79A
:1002800030B480EA010202F0004530F0004221F073
:10029000004013D090B1C30DD40DC2F31601C0F3CA
:1002A0001600E41A41F4000140F400027D3491424A
:1002B00001D3641C00E04900002C02DA30BC0020AD
:1002C00070474FF400000023914201D3891A034381
:1002D00040084FEA4101F7D151B1914202D14FF0AC
:1002E000004105E002D24FF0010101E06FF0010191
:1002F00003EBC450284430BC00F07DB896230022A4
:10030000114600F081B820F00040C10DC0F3160086
:1003100040F400007F2901DA00207047962903DCB1
:10032000C1F19601C840704796398840704700F087
:10033000004230F000400AD0C10D01F56071C0F3F9
:10034000160042EA0151C2084007114370470020DD
:1003500001467047002801DBC0F10040002901DBA5
:10036000C1F100418142704730B50B460146002083
:100370002022012409E021FA02F59D4205D303FA67
:1003800002F5491B04FA02F52844151EA2F10102E8
:10039000F1DC30BD2DE9F05F0546002092469B461A
:1003A00088460646814640241BE02846414647468B
:1003B0002246FFF7D9FE53465A46C01A914110D340
:1003C00011461846224600F017FA2D1A67EB01086D
:1003D0004F4622460120002100F00EFA17EB0009DB
:1003E0004E41201EA4F10104DFDC484631462A4676
:1003F0004346BDE8F09F0029A8BF7047401C490054
:1004000008BF20F00100704710B4B0FA80FC00FA79
:100410000CF050EA010404BF10BC704749B1CCF1A4
:10042000200421FA04F411FA0CF118BF0121214330
:100430000843A3EB0C01CB1D4FEA00614FEA1020EB
:1004400042BF002010BC704700EBC350104400298D
:10045000A4BF10BC7047401C490008BF20F0010039
:1004600010BC70472DE9FE4F804681EA0300C00FA3
:100470000C46009021F0004123F00045B8EB02004B
:10048000A94105D24046214690461C460B460246ED
:1004900023F00040104347D0270DC7F30A00C3F3F1
:1004A0000A510290401A019040286BDAC3F31300FE
:1004B00040F4801B0098924620B10023D2EB030A3F
:1004C00063EB0B0B01985946C0F14002504600F017
:1004D00093F906460D4650465946019A00F09BF99D
:1004E00010EB08006141002487EA115284EAE773A7
:1004F0001A4340D0009A62B3019A012A4FEA075288
:1005000015DC001B61EB02014FF0004202EA0752CA
:10051000CDE90042001C41F5801132462B4600F027
:100520009BF903B0BDE8F08F40462146F9E7001B78
:1005300061EB0201001C41F5801300185B4120189B
:10054000A2F5001747EB030140EAD570B6196D41DB
:1005500011E06D084FEA360645EAC0754FEA0752CA
:10056000001B61EB0201001C41F5801149084FEAB4
:1005700030000019514132462B4603B0BDE8F04F20
:1005800000F05BB90098012240000023D0EB02028A
:1005900063EBE073009821464FEAE074B8EB00008B
:1005A00061EB0401E9E783F000435BE781F0004180
:1005B00058E72DE9FE4F81EA030404F0004421F0DE
:1005C000004100944FF0000B23F0004350EA010477
:1005D0005ED052EA03045BD0C3F30A54C1F30A5558
:1005E0002C44A4F2F3340194A0FB0254C1F3130190
:1005F00041F48011C3F3130343F4801301FB02445D
:1006000000FB034E840A970A44EA815447EA835761
:10061000A4FB076802958D0A05FB07854FEA932C1A
:1006200004FB0C542705029D4FEA065847EA16378B
:10063000B5EB08056EEB070C870E920E47EA8117A3
:1006400042EA8312A7FB0201B6EB0B0164EB000444
:100650002B0D43EA0C335E1844EB1C50DA4651462E
:10066000E7FB0201C5F313044FEA0B3343EA1453CB
:100670004FEA0432019C43EA0603A4F10C040294FD
:10068000009CCDE900B400F0E7F803B0BDE8F08FBE
:1006900000200146F9E72DE9F04D81EA030404F05A
:1006A000004B21F0004514464FF0000A23F00041B2
:1006B00050EA050220D054EA01021DD0C5F30A57C2
:1006C0000246C5F31303C1F31300C1F30A5640F405
:1006D000801543F48013A7EB0608101BD64608F2DA
:1006E000FD3873EB050002D308F1010801E0921810
:1006F0005B41B8F1000F03DA00200146BDE8F08D40
:1007000000204FF48011064684460EE0171B73EB61
:10071000050705D3121B63EB050306434CEA010CE6
:1007200049084FEA300092185B4150EA0107EDD1C9
:1007300052EA030012D082EA040083EA050108436A
:1007400005D0101BAB4106D20122002306E0002297
:100750004FF0004302E06FF0010253101AEB060065
:100760004CEB085110EB0A0041EB0B01BDE8F04DDA
:1007700000F063B8C1F30A52C1F3130140F2FF3332
:1007800041F480119A4202DA00200146704740F29B
:1007900033439A42A2F2334202DC5242FFF7E4BCF6
:1007A00000F02AB830B5041E71F1000404DB4FF0EC
:1007B0000044404264EB0101141E73F1000405DBA8
:1007C0001C464FF00043524263EB0403994208BFBA
:1007D000904230BD064C074D06E0E06840F0010352
:1007E00094E8070098471034AC42F6D3FFF7A4FC16
:1007F00094560008B4560008202A04DB203A00FA78
:1008000002F1002070479140C2F1200320FA03F367
:10081000194390407047202A06DBCB17203A41FA53
:1008200002F043EAE07306E041FA02F3D040C2F17D
:100830002002914008431946704710B5141E73F109
:10084000000408DA401C41F1000192185B411A4390
:1008500001D120F0010010BD2DE9F04D92469B46DC
:1008600011B1B1FA81F202E0B0FA80F22032904682
:10087000FFF7C2FF04460F4640EA0A0041EA0B01B7
:1008800053465A46084313D0114653EA010019D083
:10089000C8F140025046FFF767FC05460E46504639
:1008A00059464246FFF7A8FF084305D0012004E05F
:1008B00020463946BDE8F08D0020054346EAE07643
:1008C0002C4337430A986305E40AA0EB0800002292
:1008D000FD0A44EA47540A3002D500200146E9E700
:1008E000010510196941DDE9084500196941BDE8B4
:1008F000F04DA2E710B504F021FE04F025FE04F04F
:10090000B7FE04F049FA04F0B1FB04A002F006F9C6
:10091000BDE8104006A109A002F000B94D435520E2
:10092000496E69742053756363657373200A000010
:100930003033303330303030000000004D4355202C
:1009400048414C2053756363657373202C20536FAB
:10095000667456657273696F6E203D2025730D0AAB
:1009600000000000FEE70000034A116889B2136826
:100970005B1A8342FBD3704724040040094808B542
:10098000816941F010018161806900F010000090E0
:1009900000F00CF80122BDE808401021024800F0E8
:1009A0006ABA000000100240001001401FB510207C
:1009B000009001200190032003906946014800F057
:1009C00059F91FBD001001402DE9F0410025154ED9
:1009D0002C4601271021304600F048FA0028F9D0B3
:1009E0002820FFF7C1FF1021304600F03FFA012810
:1009F0000BD0C4F1070007FA00F08543641CE4B291
:100A0000082CE7D32846BDE8F0811021304600F0DD
:100A10002DFA0128F9D0C4F1070007FA00F0C0B29E
:100A20000543EBE7001001402DE9FF470446FFF7BF
:100A3000BDFF384D00221021284600F01CFA12207C
:100A400000F006F901221021284600F014FA1E20B9
:100A5000FFF78AFF102000900020019001200290F3
:100A60006946284600F006F91021284600F0FEF9F4
:100A7000F0BB1021284600F0F9F90028F9D0102128
:100A8000284600F0F3F90128F9D0FFF79DFF207008
:100A9000FFF79AFF6070FFF797FFA070FFF794FFD2
:100AA000E070FFF791FF2071FFF780FF0122102116
:100AB000284600F0E0F92778607807EBC701804608
:100AC00001EB071100EB8100FFF718FCDFF84890FD
:100AD0004946FFF7D5FBA060A578E67805EBC50091
:100AE00000EB051006EB8000FFF708FC494600E02C
:100AF0000EE0FFF7C5FBE06007EB0800A91908440A
:100B00002179C0B2814203D1002004B0BDE8F08752
:100B10000120FAE7001001400000C842704770470A
:100B20002DE9F05F90F821100024022903D0042160
:100B30008163012485E001680A6822F00E020A60E0
:100B400001680A6822F001020A603F4E3E4FB2156A
:100B5000DFF8F4C0DFF8F090DFF8ECA0DFF8E8B0E1
:100B6000DFF8E4E00168783F13011502ACF1640C92
:100B7000A9F15009AAF13C0AABF1280BAEF1140E11
:100B80004FF48018B14227D9B9420ED0614512D036
:100B900049451DD0514518D0594518D0714501D14E
:100BA000424615E0294EB14201D1012210E0274E04
:100BB0001436B14201D110220AE0244E2836B14247
:100BC00006D0224A3C32914201D11A4600E02A4620
:100BD0001E49091F0A602BE0B94213D0614517D0A6
:100BE000494522D051451DD059451DD0714501D1EF
:100BF00042461AE0B14202D14FF0807215E0134E26
:100C0000B14201D1012210E0104E1436B14201D19F
:100C100010220AE00D4E2836B14206D00B4A3C3273
:100C2000914201D11A4600E02A46074980394A60BC
:100C3000012180F82110002180F82010416B01B1C2
:100C400088472046BDE8F09F80000240080402402B
:100C500070B5044600F014F90546601C02D0044843
:100C60000078044400F00CF9401BA042FAD370BD98
:100C7000140000202DE9F84FDFF8C891002409F195
:100C8000040A0AF1040B23460F270BF1040ED1E0EE
:100C90000125A54006EA0502AA4276D1DFF8A8C1DF
:100CA0004E68A6EB0C0866452BD00DDC032E34D025
:100CB00005DC36B3012E19D0022E2FD11BE0112EE8
:100CC00016D0122E2AD119E0B8F5881F19D006DCEB
:100CD000B8F5803F15D0B8F5801F1FD111E0B8F5E9
:100CE000001F0ED0B8F5041F18D10AE0CB6815E03C
:100CF000CB681B1D12E0CB6808330FE0CB680C33C8
:100D00000CE08B682BB1012B4FF0080303D0456139
:100D100004E0042302E0056100E00023FF2A01D87B
:100D2000064601E000F104064FEA840501D9A5F169
:100D30002005D6F8008007FA05FC28EA0C0803FA1B
:100D400005F548EA0508C6F800804D68ED0070D545
:100D50003E4DAE6946F00106AE61AD6924F0030672
:100D600005F0010500953A4D06EB050CDCF808503E
:100D7000A607360F07FA06F825EA0805DFF8D4803B
:100D8000404503D14FF0000825E052E0DFF8C8806D
:100D9000404502D14FF001081DE0DFF8C08040451A
:100DA00002D14FF0020816E0DFF8B480404502D1CE
:100DB0004FF003080FE0DFF8AC80404502D14FF060
:100DC000040808E0DFF8A080404502D14FF0050894
:100DD00001E04FF0060808FA06F848EA0508CCF8E2
:100DE00008804D68D9F80060ED034D4601D51643E3
:100DF00000E096432E604D68DAF80060AD0355467A
:100E000001D5164300E096432E604D68DBF8006084
:100E1000ED025D4601D5164300E096432E604D6815
:100E2000DEF80060AD02754601D5164300E096433A
:100E30002E60641C0A681646E2407FF429AFBDE8C4
:100E4000F88F000000040140000011100010024063
:100E50000000014000080140000C0140001001406A
:100E60000014014000180140001C01408068084047
:100E700000D0012070470AB1016170470904FBE707
:100E80000148806870470000140000200248816813
:100E9000027811448160704714000020074810B5A3
:100EA000016841F010010160032000F075F8002096
:100EB00000F006F800F024F8002010BD00200240E9
:100EC00070B50D4D04464FF47A712878B1FBF0F0FF
:100ED0000A490968B1FBF0F000F0FEFA48B9102C9D
:100EE00007D200222146501E00F036F800206C6028
:100EF00070BD012070BD0000140000202000002003
:100F00000C4808B5816941F001018161816901F0F6
:100F100001010091C16941F08051C161C06900F0D7
:100F2000805000900448416821F0E06141F0007178
:100F3000416008BD0010024000000140002809DBAC
:100F400000F01F02012191404009800000F1E020E3
:100F5000C0F8001170470000F0B40E4B1B680C463F
:100F6000C3F30223C3F10705042D00D90425191D7D
:100F7000072901D2002300E0DB1E012606FA05F155
:100F8000491E214099409E40761E16403143F0BCD8
:100F900001F0E8BD0CED00E0064900F0070208682A
:100FA0004FF6FF03184040EA0220034A104308604E
:100FB000704700000CED00E00000FA05BFF34F8F12
:100FC00005480168054A01F4E06111430160BFF37F
:100FD0004F8F00BFFDE700000CED00E00400FA05B4
:100FE0002DE9F0470F46050061D0434E306800F010
:100FF0000700B84209D2306820F00700384330605B
:10100000306800F00700B84251D128683B4C810796
:1010100012D5400703D5606840F4E060606028782E
:10102000000703D5606840F4605060606068A9689C
:1010300020F0F000084360602878C00728D0686876
:10104000012810D02168022810D0890700292EDA43
:10105000616821F0030101436160FFF711FF8046E1
:1010600041F288390DE021688903EFE78901EDE756
:10107000FFF706FFA0EB0801494502D90320BDE8B0
:10108000F0876068696800F00C00B0EB810FEFD169
:10109000306800F00700B8420BD9306820F0070034
:1010A00038433060306800F00700B84201D00120BA
:1010B000E5E72878400705D56068E96820F4E06036
:1010C000084360602878000706D56068296920F425
:1010D000605040EAC100606000F038F86168084A7A
:1010E000C1F30311515CC840064908600648006816
:1010F000FFF7E6FE0020C2E7002002400010024099
:101100007C560008200000201800002004480549F3
:1011100000684968044AC1F30221515CC840704725
:1011200020000020001002408C56000804480549A9
:1011300000684968044AC1F3C221515CC840704745
:1011400020000020001002408C56000812A185B03B
:101150000FC98DE80F0014A0144A0068049051686C
:10116000134801F00C03042B10D0082B0ED1C1F34F
:101170008343C9031DF803000AD5516804AAC1F3CB
:101180004041515C0A4A5043B0FBF1F005B0704752
:1011900008494843FAE70000020304050607080966
:1011A0000A0B0C0D0E0F101001020000001002407F
:1011B00000127A0000093D002DE9F84F040070D0BC
:1011C0002078C04DC00749D06868C0F3810001286D
:1011D00007D06868C0F38100022809D16868C0039D
:1011E00006D52868800339D560680028E7D035E047
:1011F0006068B0F5803F0BD010B1B0F5A02F11D0D2
:10120000286820F480302860286820F4802002E0DC
:10121000286840F480302860606890B1FFF730FEA5
:1012200006460AE0286840F480202860F0E700BF06
:10123000FFF726FE801B642873D828688003F7D543
:101240000CE0FFF71DFE064605E000BFFFF718FEA5
:10125000801B6428F0D828688003F7D420789A4E41
:1012600080074FF001094FF0000839D5686810F089
:101270000C0F07D06868C0F38100022809D16868A4
:10128000C00306D42868800714D52069012808D136
:1012900010E02069B0B1C6F80090FFF7F1FD0746F5
:1012A00005E00AE1FFF7ECFDC01B0228C4D828685E
:1012B0008007F7D52868616920F0F80040EAC1008E
:1012C00028600DE0C6F80080FFF7DAFD074604E06D
:1012D000FFF7D6FDC01B022823D828688007F7D463
:1012E000207800072CD57948A169D9B1C0F80090C1
:1012F000FFF7C6FD074604E0FFF7C2FDC01B02284A
:101300000FD8686A8007F7D571484FF4FA51006822
:10131000B0FBF1F0009000BF0098411E0091FAD29E
:101320000EE080E0C0F80080FFF7AAFD074604E069
:10133000FFF7A6FDC01B022875D8686A8007F7D49E
:101340002078400760D5E8690027C00008D4E86924
:1013500040F08050E861E869012700F0805000907B
:101360005C480168C90513D40168834641F4807163
:101370000160FFF785FD824606E000BFFFF780FDB4
:10138000A0EB0A0064284ED8DBF80000C005F5D5B4
:10139000E06801280AD008B1052813D0286A20F097
:1013A00001002862286A20F0040002E0286A40F068
:1013B00001002862E06841F2883B98B1FFF760FDC8
:1013C00082460BE0286A40F004002862EEE700BF86
:1013D000FFF756FDA0EB0A0159455AD8286A800745
:1013E000F6D50CE0FFF74CFD824605E0FFF748FD1F
:1013F000A0EB0A0159454CD8286A8007F6D41FB1E2
:10140000E86920F08050E861E06988B36968C1F359
:101410008101022944D00228C6F8608004D0FFF779
:101420002FFD044638E034E0FFF72AFD074604E0CC
:10143000FFF726FDC01B02282BD828688001F7D4AF
:10144000206AB0F5803F05D16868A16820F40030BB
:1014500008436860D4E908010843696821F47411FD
:1014600008436860C6F86090FFF70AFD044606E08E
:1014700025E000BFFFF704FD001B022809D82868FB
:101480008001F7D51BE000BFFFF7FAFC001B022824
:1014900002D90320BDE8F88F28688001F4D40EE05B
:1014A0000128F7D06868226A00F48031914204D1A3
:1014B000616A00F47010884201D00120EAE7002040
:1014C000E8E700000010024000004242800442426F
:1014D000200000200070004010B5401EB0F1807F59
:1014E00001D3012010BD4FF0E02460610F2160178F
:1014F00001F038FB0020A06107202061002010BD12
:101500007047704710B590F83C20012A22D0012284
:1015100080F83C20CA688C6822F4407222434C68F0
:1015200022F4806222430C6822F4006222430C6998
:1015300022F4805222434C6922F400522243C969AA
:10154000002322F480420A4301684A6480F83C3058
:10155000002010BD022010BD70B590F83C20012A7B
:101560002CD0012480F83C40022280F83D20036802
:101570005A689D6822F070060A6832435A60104B20
:1015800002689A420ED00F4B9A420BD0B2F1804FB4
:1015900008D00D4B9A4205D00C4B9A4202D00C4B0E
:1015A0009A4204D1496825F080031943916080F87C
:1015B0003D40002180F83C10084670BD022070BDFF
:1015C000002C0140003401400004004000080040AD
:1015D000000C004010B5040003D094F83D0010B199
:1015E00007E0012010BD002084F83C00204600F0F8
:1015F0001FF8022084F83D00211D206801F04AF800
:10160000012084F8460084F83E0084F83F0084F806
:10161000400084F8410084F8420084F8430084F8D4
:10162000440084F8450084F83D00002010BD00000F
:1016300008B5204A0168204891420ED1816941F4E1
:10164000006181618069002200F400600090114611
:101650001920FFF781FC19201BE0B1F1804F0AD05F
:10166000164A914219D1C16941F00201C161C069B4
:1016700000F002001BE0C16941F00101C161C069D5
:10168000002200F00100009011461C20FFF764FCCE
:101690001C20BDE80840FFF751BC094A914207D120
:1016A000816941F400518161806900F4005000902B
:1016B00008BD0000002C0140001002400004004062
:1016C0000034014090F83D10012901D001207047FD
:1016D000022180F83D100168CA6842F00102CA6028
:1016E00000680E4988420ED00D4988420BD0B0F1F7
:1016F000804F08D00B49884205D00B49884202D060
:101700000A49884204D1816801F00701062903D003
:10171000016841F00101016000207047002C014088
:10172000003401400004004000080040000C00406C
:1017300070B5044690F83C00012817D0012584F8C4
:101740003C50022084F83D002068826822F0770235
:1017500022F47F4282600868502830D00DDC2028B7
:101760004DD005DC98B310283BD148E0022070BD75
:10177000302844D0402834D139E0602828D070285F
:1017800006D0B0F5805F2CD0B0F5005F29D10AE01B
:10179000CB68D1E90121206800F0CFFF2068816883
:1017A00041F0770109E0CB68D1E90121206800F020
:1017B000C4FF2068816841F48041816011E0CA68FB
:1017C0004968206801F08EF85021206807E016E093
:1017D000CA684968206801F096F86021206800F026
:1017E000B6FF84F83D50002084F83C0070BDCA6804
:1017F0004968206801F076F840212068EFE7226808
:1018000001461046EBE7704770B504460068016971
:101810004FF00005C943890715D4C168C94389073A
:1018200011D4E91E016101202077206880698007BA
:10183000204602D0FFF7E7FF04E000F0BFF82046A3
:1018400000F04EF9257720680169C943490717D48C
:10185000C168C943490713D46FF004010161022034
:1018600020772068806910F4407F204602D0FFF77F
:10187000CAFF04E000F0A2F8204600F031F9257715
:1018800020680169C943090716D4C168C94309071B
:1018900012D46FF008010161042020772068C0692C
:1018A0008007204602D0FFF7AEFF04E000F086F884
:1018B000204600F015F9257720680169C943C9065B
:1018C00017D4C168C943C90613D46FF01001016170
:1018D000082020772068C06910F4407F204602D09D
:1018E000FFF791FF04E000F069F8204600F0F8F8F7
:1018F000257720680169C943C90708D1C168C94370
:10190000C90704D1891E0161204600F045F920680D
:101910000169C943090609D4C168C943090605D448
:101920006FF0800101612046FFF7EAFD2068016940
:10193000C943490609D4C168C943490605D46FF0B3
:1019400040010161204600F037F920680169C94370
:1019500089060BD4C168C943890607D46FF02001FA
:1019600001612046BDE87040FFF7CBBD70BD0000AF
:1019700000B585B0002100910191029103910068AA
:101980000B49884211D10B48816941F010018161F6
:101990008069694600F010000490C0200090022089
:1019A000019003900448FFF765F905B000BD000001
:1019B000003401400010024000100140704770B533
:1019C000044690F83C000D4601280AD0012084F816
:1019D0003C0042B1042A18D0082A2AD00C2A4DD142
:1019E00039E0022070BD206800F0BAFE20688169ED
:1019F00041F0080181612068816921F00401816161
:101A0000206881692A69114311E0206800F0D8FE3E
:101A10002068816941F4006181612068816921F455
:101A200080618161206881692A6941EA02218161BE
:101A300024E0206800F0FAFE2068C16941F0080146
:101A4000C1612068C16921F00401C1612068C169D8
:101A50002A69114311E0206800F01CFF2068C16969
:101A600041F40061C1612068C16921F48061C161F4
:101A70002068C1692A6941EA0221C161002084F815
:101A80003C0070BD10B5040003D094F83D0010B1C7
:101A900007E0012010BD002084F83C00204600F043
:101AA0001EF8022084F83D00211D206800F0F2FDA0
:101AB000012084F8460084F83E0084F83F0084F852
:101AC000400084F8410084F8420084F8430084F820
:101AD000440084F8450084F83D00002010BD7047A4
:101AE0007047000010B50446022249B104290ED007
:101AF000082913D094F84100012816D0012010BD08
:101B000094F83E000128F9D184F83E200FE094F8C3
:101B10003F000128F2D184F83F2008E094F840000B
:101B20000128EBD184F8402001E084F84120012213
:101B3000206800F0F5FD13492068134A884201D05F
:101B4000904203D1436C43F40043436420688842CD
:101B50000DD090420BD0B0F1804F08D00B49884295
:101B600005D00B49884202D00A49884204D18168D5
:101B700001F00701062903D0016841F0010101606D
:101B8000002010BD002C0140003401400004004042
:101B900000080040000C0040054910B5884206D1FD
:101BA000044803F023FABDE8104002F04DBE10BD1A
:101BB00084010020520000207047704770B5026811
:101BC00004461068D168536910F00F0F52D003F02B
:101BD000010501F490762E435FD0C20705D0CA05F7
:101BE00003D5E26B42F00102E263420705D5DA0752
:101BF00003D0E26B42F00202E263820705D5DA0706
:101C000003D0E26B42F00402E263020707D501F061
:101C100020022A4303D0E26B42F00802E263E26B47
:101C2000002A33D0800604D5880602D5204600F06D
:101C300092FE20684069E16BC0F38010090700D470
:101C400028B3204600F079FE2068416949061AD57C
:101C5000416921F040014161606BA0B12D494163B0
:101C6000606BFEF75DFF002810D0606B416BBDE834
:101C700070400847830610D58B060ED52046BDE878
:101C8000704000F068BE2046FFF797FF70BD204609
:101C9000FFF793FF0020E06370BD03062BD50B0612
:101CA00029D594F839002128F6D1A068B0F5805FD5
:101CB00001D12069B0B1206A411C216221680078FD
:101CC0004860E08C401E0004000CE084E4D12068F1
:101CD000C16821F08001C1602068C16841F0400105
:101CE000C16070BD206A0088C0F308005060206A9F
:101CF000801C2062E5E74006F3D54806F1D5D1689F
:101D0000204621F04001D160202184F8391000F0F4
:101D100064F970BD2B29000870B5040004D094F854
:101D20003900002510B106E0012070BD84F838505C
:101D3000204600F023F8242084F839002068C16888
:101D400021F40051C160204600F04CFE206801697A
:101D500021F4904101612068416921F02A0141612B
:101D60002068C16841F40051C160E563202084F817
:101D7000390084F83A00002070BD0000F0B585B04D
:101D80000024009401940294039403683F4F0220BE
:101D90003F4903223F4D4602BB4225D18B6943F4A4
:101DA00080438B618B6903F4804304938B6943F018
:101DB00004038B618969039201F00401049101021B
:101DC000CDE9001069462846FEF754FFCDE90064CE
:101DD000694628460294FEF74DFF00221146252051
:101DE000FFF7BAF8252028E02B4FBB4229D1CB6959
:101DF00043F40033CB61CB6903F4003304938B6964
:101E000043F004038B618969039201F0040104919A
:101E10000421CDE9001069462846FEF72BFF082073
:101E2000CDE90004694628460294FEF723FF00220C
:101E300011462620FFF790F82620FFF77FF805B01F
:101E4000F0BD164DAB42FAD1CB6943F48023CB6190
:101E5000CB6903F4802304938B6943F008038B61FF
:101E600089690F4D01F00801CDE90321CDE900603A
:101E700069462846FEF7FEFEE814CDE900046946EF
:101E800028460294FEF7F6FED9E70000003801402C
:101E9000001002400008014000440040004800409B
:101EA000000C014090F83A30202B22D1F9B1F2B168
:101EB00090F83830012B1CD081628285C2850021C8
:101EC000C163222280F83A2080F838100168CA687D
:101ED00042F48072CA6001684A6942F001024A61B4
:101EE0000068C16841F02001C160002070470120F6
:101EF000704702207047000010B50068074988420B
:101F00000AD10121064802F09DFBBDE810400122E4
:101F100003490448FFF7C6BF10BD0000004400405D
:101F2000240000209C0200202DE9F843044690F88C
:101F300039001F4616460D4620284CD1C5B1BEB10A
:101F400094F83800012846D0012084F838004FF07A
:101F50000008C4F83C80212084F83900FEF790FF87
:101F6000A6848146E684A068B0F5805F03D004E0D3
:101F70000120BDE8F883206928B12E465FF00005F6
:101F800084F838800EE00026FAE78021204600F031
:101F900085FDA0B9AEB116F8010B21684860E08C50
:101FA000401EE084E08C4B464FF000020097002872
:101FB000EBD14FF04001204600F070FD30B103201E
:101FC000D7E735F8020BC0F30800E6E7202084F8D5
:101FD00039000020CDE70220CBE77047FEE7000084
:101FE0001FB520200090002001900120029069463A
:101FF0000148FEF73FFE1FBD000801401FB520202D
:102000000090012001900320039069460148FEF7EB
:1020100031FE1FBD0008014070B50546FFF7EEFF19
:10202000144E002210213046FEF725FF002428061A
:1020300001D5012200E0002220213046FEF71BFFDF
:102040006806050E052001F00BFA0122102130462A
:10205000FEF711FF052001F003FA0022102130469F
:10206000FEF709FF052001F0FBF9641CE4B2082C1F
:10207000DDD370BD0008014010B5FFF7BFFF0E4C67
:10208000012220212046FEF7F6FE012210212046E3
:10209000FEF7F1FE052001F0E3F9002220212046A1
:1020A000FEF7E9FE052001F0DBF920460022BDE83D
:1020B00010401021FEF7DFBE0008014010B5FFF709
:1020C0009DFF0E4C002210212046FEF7D4FE002278
:1020D00020212046FEF7CFFE052001F0C1F90122A4
:1020E00010212046FEF7C7FE012220212046FEF7E0
:1020F000C2FEBDE81040052001F0B2B90008014061
:1021000010B5104C012220212046FEF7B4FE052018
:1021100001F0A6F9012210212046FEF7ACFE0520B1
:1021200001F09EF9FFF75CFF20212046FEF79EFE9E
:102130000028F9D1002210212046FEF79CFE002045
:1021400010BD00000008014070B516460D4604465B
:10215000FFF792FF2046FFF75FFFFFF7D1FF002454
:1021600006E0305DFFF758FFFFF7CAFF641CE4B2DA
:10217000AC42F6D3FFF7A2FF002070BD2DE9F0437B
:1021800085B0002435480094019402940394816939
:1021900041F010018161816901F0100104918169B0
:1021A00041F020018161816901F020010491816980
:1021B00041F004018161816901F0040104918169A8
:1021C00041F0080181618069254F00F0080044F664
:1021D00010050490002229463846FEF74CFEDFF831
:1021E0008480002230214046FEF745FEDFF87890DB
:1021F000002210214846FEF73EFE009502260125EA
:102200000396CDE9015469463846FEF733FD302088
:10221000CDE900050320CDE9024069464046FEF7BE
:1022200029FDA802CDE90004694638460294FEF76C
:1022300021FD4FF40A70CDE9000469464846029436
:10224000FEF718FD1020CDE90005CDE902466946EC
:102250004846FEF70FFD05B0BDE8F08300100240D0
:102260000010014000080140000C014010B586B08C
:102270000024174800940194029403940494134991
:102280000594016041F61F41C0E901146321C0E9D2
:10229000031444618461FFF79DF908B1FEF73FFC28
:1022A0004FF48050009069460948FFF741FA08B1A1
:1022B000FEF735FC049404A905480594FFF74CF992
:1022C000002801D0FEF72BFC06B010BD002C014009
:1022D0003C01002010B586B00024164800940194FB
:1022E0000294039404944FF080410594016041F6F8
:1022F0001F41C0E901140921C0E903148461FFF7FB
:1023000069F908B1FEF70BFC4FF480500090694664
:102310000848FFF70DFA08B1FEF701FC049404A980
:1023200004480594FFF718F9002801D0FEF7F7FBE1
:1023300006B010BD8401002010B586B000241748F7
:102340000094019402940394049413490594016049
:102350004721C0E901144FF6FF71C0E90314802141
:102360008161FFF737F908B1FEF7D9FB4FF48050D0
:10237000009069460948FFF7DBF908B1FEF7CFFB8B
:10238000049404A905480594FFF7E6F8002801D055
:10239000FEF7C5FB06B010BD00040040CC010020D4
:1023A00010B596B000240F941094119412941394C5
:1023B0001C2168461494FDF700FF202107A8FDF7B3
:1023C000FCFE2C482A4901604721C0E9011444F66B
:1023D0001F61C0E9031444618461FFF7FBF808B191
:1023E000FEF79DFB4FF480500F900FA92148FFF797
:1023F0009FF908B1FEF793FB1E48FFF743FB08B1B6
:10240000FEF78DFB139413A91A481494FFF7A4F850
:1024100008B1FEF784FB6020CDE900040294039428
:10242000049405940022694612480694FFF7C7FAFF
:1024300008B1FEF774FB042269460E48FFF7BFFAA5
:1024400008B1FEF76CFB0794089409944FF4005010
:102450000A94CDE90B4007A906480E94FFF752F8FD
:1024600008B1FEF75CFB0348FFF782FA16B010BD17
:1024700000340140140200200C4810B50A490160E4
:102480004FF4E1314160002181600C22C160C0E95C
:1024900004128161C161FFF73FFC002803D0BDE851
:1024A0001040FEF73CBB10BD003801405C0200202C
:1024B0000C4810B50A4901604FF4165141600021E3
:1024C00081600C22C160C0E904128161C161FFF723
:1024D00023FC002803D0BDE81040FEF720BB10BD50
:1024E000004400409C0200200C4810B50A490160DD
:1024F0004FF4E1314160002181600C22C160C0E9EC
:1025000004128161C161FFF707FC002803D0BDE818
:102510001040FEF704BB10BD00480040DC02002064
:10252000FEE7704770477047FEF7B0BC30B58FB01C
:1025300028216846FDF741FE14210AA8FDF73DFE5B
:1025400001210804CDE90010002402940225049121
:10255000CDE907504FF4E01009906846FEF72CFED5
:102560000F20CDE90A056802CDE90C4002210AA836
:102570000E94FEF735FD0FB030BD70472DE9F041E8
:102580003948FFF741F93948394E006801280ED023
:10259000002210213046FEF76EFC08213046FEF77F
:1025A00065FC0127334C002518B125600CE00122A1
:1025B000EFE7E068401CE0600A2806D108213046B9
:1025C000FEF754FC00B92760E5604FF400784146FF
:1025D0003046FEF74BFC08B165600AE02069401CFC
:1025E00020610A2806D141463046FEF73FFC00B97B
:1025F00067602561226820484FF48041012A16D087
:102600006268012A13D00022FEF735FC1B480168DE
:102610001B4801290DD040F2DC51016019480068C7
:10262000062809D2DFE800F0080B0E16191C01225B
:10263000EAE74FF47A71F0E72846A56005E04FF429
:10264000FA5001E042F21070A0600D49091D0860C7
:10265000BDE8F08142F6E060F6E743F2B060F3E7F0
:102660004FF47A50F0E700003C0100202C000020DD
:10267000000C01400000002000100140300000204C
:1026800034340140280000200148FFF7BDB80000A5
:1026900084010020F0B502681C4B1D4D1D4E1E4FDD
:1026A0001E4C4FF0804C984209D0A04207D06045A4
:1026B00005D0A84203D0B04201D0B84204D122F0E4
:1026C000700E4A6842EA0E02984209D0A04207D032
:1026D000604505D0A84203D0B04201D0B84203D132
:1026E00022F44075CA682A434D6922F080022A43C9
:1026F00002608A68C2620A688262984201D0A0427F
:1027000001D10969016301214161F0BD002C014043
:102710000004004000080040000C0040003401406C
:1027200010B501F01F030121046A99408C43046233
:10273000016A9A401143016210BD10B5846842EAF3
:10274000032224F47F440A432243826010BD82683E
:1027500022F070020A4342F00701816070470000D6
:10276000F0B5026A22F001020262036A42688469DB
:10277000124E24F073050C682C4323F002058B687D
:102780002B430D4DA84201D0B04205D123F00807DC
:10279000CB683B4323F00403A84201D0B04205D1EB
:1027A0004D6922F4407215438A692A43426084616C
:1027B000496841630362F0BD002C014000340140D0
:1027C000F0B5026A22F010020262026A436884696C
:1027D0000D6824F4E64444EA05248D6822F02002C2
:1027E00042EA05120F4D104EA84201D0B04206D168
:1027F000CF6822F0800242EA071222F04002A8428B
:1028000001D0B04207D14D6923F4406343EA850308
:102810008D6943EA8503436084614968816302628C
:10282000F0BD0000002C014000340140F0B5026A08
:1028300022F480720262026A4368C46922F4007260
:1028400024F073050C68124E2C438D6842EA052271
:102850000E4DA84201D0B04206D1CF6822F40062EA
:1028600042EA072222F48062A84201D0B04207D196
:102870004D6923F4405343EA05138D6943EA051378
:102880004360C4614968C1630262F0BD002C01402D
:102890000034014030B5026A22F480520262046AB8
:1028A0004268C3690D6823F4E64343EA05238D6853
:1028B00024F4005444EA0534084DA84202D0084DDF
:1028C000A84204D14D6922F4804242EA8512426056
:1028D000C36149680164046230BD0000002C0140FE
:1028E0000034014010B5036A046A24F00104046254
:1028F000846924F0F00444EA021423F00A020A4333
:102900008461026210BD10B5036A23F010030362F4
:102910008369046A23F4704343EA023224F0A0037B
:1029200043EA01118261016210BD10B5406A0021C5
:10293000C185C184FFF741F910BD0168CA6822F45E
:102940009072CA6001684A6922F001024A6120213E
:1029500080F83A10704710B590F83A10222901D04B
:10296000022010BD82684FF480539A4201D1016960
:1029700021B1816A9A421BD04AB10AE00268816A99
:102980005268C2F308020A80816A891C08E0026961
:1029900072B10268526802F07F020A70816A491CB3
:1029A0008162C18D491E0904090CC18503D016E05E
:1029B00002685268F1E70168CA6822F02002CA6022
:1029C0000168CA6822F48072CA6001684A6922F00C
:1029D00001024A61202180F83A10FFF78DFA0020A9
:1029E00010BD000070B5044600680169E26821F47A
:1029F0004051114301612169A0680843616908439E
:102A00002168CA6841F20C639A430243CA60206895
:102A10004169A26921F44071114341611E49206856
:102A2000884202D1FEF782FB01E0FEF76FFB00EB6C
:102A3000C00101EB0012606864218000B2FBF0F37A
:102A4000B3FBF1F36FF018067343B2FBF0F5B2FB82
:102A5000F0F605EB8305322303EB0515B5FBF1F525
:102A6000B6FBF1F605F0F00505EB0615B2FBF0F646
:102A7000B2FBF0F0B0FBF1F06FF01802504306EB40
:102A8000800003EB0010B0FBF1F0216800F00F00B4
:102A90002844886070BD0000003801402DE9F041F5
:102AA000984617460E460446069D1DE0681C1BD03E
:102AB0002DB1FEF7E5F9A0EB0800A84214D9206873
:102AC000C16821F4D071C1602068416921F0010121
:102AD0004161202084F8390084F83A00002084F80D
:102AE00038000320BDE8F0812068006836EA000065
:102AF00004D00020B842D9D00020F3E70120F9E744
:102B00000148FFF75BB800005C0200200148FFF7B6
:102B100055B800009C020020FEE700000FB4054BF2
:102B200010B503A9044A029800F0FEF810BC5DF845
:102B300014FB000089340008600000200FB4084B2B
:102B400010B504A902AA039800F0EEF8044602A901
:102B5000002000F080FC204610BC5DF814FB000053
:102B6000573400080907090E002804DB00F1E020B3
:102B700080F80014704700F00F0000F1E02080F8AA
:102B8000141D704702E008C8121F08C1002AFAD1BC
:102B900070477047002001E001C1121F002AFBD1DD
:102BA000704700002DE9FF5F82B00021DDE90430AD
:102BB000020DDDF840B0034318D044F61050A2F2E5
:102BC000FF3242431514119801281FD0A5EB0B00CA
:102BD000401C5FEA000A4FF000064E4FDFF83891C4
:102BE000B046504615D5CAF1000413E011980124EF
:102BF0004AA3012801D16FEA0B010298119AC0E99A
:102C00000031C0E9024206B0BDE8F09FCBF1000000
:102C1000DFE704460021404A491842EB0450CDE961
:102C2000001012E0E00707D032463B4640464946D6
:102C3000FDF7BFFC8046894632463B4610461946A2
:102C4000FDF7B7FC06460F466410002CEAD1DDE91B
:102C50000401DDE90023BAF1000F06DAFDF7A9FC53
:102C600042464B46FDF7A5FC05E0FDF714FD424644
:102C70004B46FDF710FD04460E460022284BFDF79B
:102C800091FD03D84FF0FF30014607E00022254BAD
:102C900020463146FDF7E6FBFDF76CFD102409E008
:102CA000002C0ADB0A220023FDF774FB039B303261
:102CB0001A55641E50EA0102F2D1641C039AC4F151
:102CC00011031444119A012A03D0012208430DD1A3
:102CD0000AE0084304D000204FF0110B119072E776
:102CE000A3EB0B056D1E0DE05B4504DD4FF000020C
:102CF00005F1010504E003DA4FF00002A5F101053A
:102D0000002AECD002981199C0E90231C0E90045CF
:102D100079E70000000014400000F03F30000000A0
:102D20000000F0430000E03F2DE9FF4F95B09B46C7
:102D30008946064600250FE2252877D1002427463C
:102D4000F84A0121059400E0044316F8013F203BB6
:102D500001FA03F01042F7D130782A2811D06FF031
:102D60002F033078A0F13002092A16D8059A44F0D2
:102D7000020402EB820203EB42021044761C05902F
:102D8000EFE759F8042B0592002A03DA504244F485
:102D90000054059044F00204761C30782E2816D199
:102DA00016F8010F44F004042A280DD06FF02F020A
:102DB0003078A0F13003092B09D807EB870302EB29
:102DC0004303C718761CF3E759F8047B761C307868
:102DD0006C280FD006DC4C2817D068280DD06A2844
:102DE00014D104E0742810D07A280FD10DE044F4F7
:102DF00000140AE044F4801401E044F440147278B2
:102E0000824202D104F58014761C761C3078662844
:102E10000BD013DC582877D009DC002875D0452862
:102E2000F6D04628F4D047281AD19DE118E063284F
:102E300035D0642879D0652812D195E1702873D0F7
:102E400008DC6728F1D069286FD06E280DD06F2874
:102E500006D1B5E073282CD0752875D0782874D0A9
:102E60005A46179990476D1C75E1C4F30250022829
:102E700009D003280DD0D9F8001004280DD00D601A
:102E800009F1040967E1D9F80010EA17C1E9005215
:102E9000F6E7D9F800100D80F2E70D70F0E719F8A9
:102EA000041B8DF8001000208DF80100EA46012077
:102EB00003E059F804AB4FF0FF3061074FF0000119
:102EC00002D40DE008F101018846B9420FDA8045CD
:102ED000F8DB1AF808100029F4D108E008F1010124
:102EE00088468142FADB1AF808100029F6D10598C5
:102EF0005B46A0EB080721463846179A00F094FA83
:102F0000284400EB080507E04DE029E10DE01AF840
:102F1000010B5A4617999047B8F10108F7D25B4662
:102F200021463846179A13E142E00A220092C4F380
:102F300002524FF0000A022A08D059F804CB032AA3
:102F40004FEAEC710AD00DE029E02AE009F107010F
:102F500021F00702F2E802C1914609E00FFA8CFC69
:102F60004FEAEC71042A03D14FFA8CFC4FEAEC7162
:102F7000002907DA0A460021DCF1000C61EB0201AE
:102F80002D2202E0220504D52B228DF804200122F7
:102F900003E0E20701D02022F7E7904659E00A213A
:102FA00002E010220DE010214FF0000A00910BE02A
:102FB00010224FF0000A44F004040827009203E0B6
:102FC00008224FF0000A0092C4F30252022A05D0F0
:102FD00059F804CB0021032A08D009E009F10701C0
:102FE00021F00702F2E802C1914605E01FFA8CFCCD
:102FF000042A01D10CF0FF0C4FF00008220728D55D
:10300000702806D0009B83F0100353EA0A0305D012
:103010000EE040228DF80420012208E05CEA010263
:1030200006D030228DF804208DF80500022290464B
:10303000009B83F0080353EA0A030AD15CEA010209
:1030400001D1620705D530228DF804204FF0010828
:103050007F1E582804D034A003900EA802900DE0E3
:1030600036A0F9E753466046009AFDF793F9844687
:103070000398825C0298401E029002705CEA010094
:10308000F0D1029806A9081A00F1200A600702D5BB
:1030900024F4803400E00127574502DDA7EB0A0045
:1030A00000E0002000EB0A01009005984144401A1E
:1030B0000590E00306D45B462146179A059800F078
:1030C000B3F90544002706E001A85A46C05D1799E8
:1030D00090476D1C7F1C4745F6DBE0030CD55B4633
:1030E0002146179A059800F09FF9054404E0302026
:1030F0005A46179990476D1C0099481E0090002968
:10310000F5DC08E0029802995A460078491C0291C1
:10311000179990476D1CBAF10001AAF1010AF1DC80
:1031200065E100000928010030313233343536378B
:103130003839616263646566000000003031323303
:1031400034353637383941424344454600000000A3
:1031500000F058F90544761C307800287FF4ECAD77
:1031600019B02846BDE8F08F620700D4062709F1A0
:10317000070222F0070CFCE80223E14603F00048B6
:103180005FEA080C02D00FF2702C0DE05FEA045CDD
:1031900002D50FF2682C07E05FEAC47C02D00FF280
:1031A000602C01E0AFF2700C4FF0FF3823F00043C9
:1031B000CDF850C065280CD006DC452809D046283B
:1031C0001DD047283DD13DE0662818D067287ED124
:1031D00038E00021112F01DB112000E0781CCDE93F
:1031E000000106A90EA8FFF7DDFCDDE90F010E9A2C
:1031F00003910021009207F1010A04914DE04FF084
:1032000000400097CDE9011006A90EA8FFF7CAFCFF
:10321000DDE90F0203920E9B11990022DDF80CA04C
:103220000093049211B9791C00EB010AB7EB0A0074
:1032300004D4C0F1FF3007F1010A0490AAEB0700A3
:10324000019044E0012F00DA01270021112F01DD58
:10325000112000E03846CDE9000106A90EA8FFF7CD
:10326000A1FCDDE90F010E9A039100210491009267
:10327000BA4621070CD40399514500DA8A46BAF1BF
:10328000010F05DD009AAAF10101515C302908D037
:10329000B84202DA10F1040F06DA0121CDE901107B
:1032A00015E0AAF10101E9E7002805DC04990144D1
:1032B0000491AAEB000102E0411C514500DD8A4661
:1032C0000499401A401C01904FF0004002902007E2
:1032D00004D40198504501DBCDF8048000208DF81E
:1032E0004F0002980DF14F07B0F1004F25D02B2071
:1032F0000E9002984FF0020800280CDA404202902B
:103300002D200E9007E00A210298FDF72DF83031AC
:10331000029007F8011DB8F10001A8F10108F2DCE4
:1033200002980028EFD1791E0E980870307800F0CE
:10333000200040F0450007F8020D12A8C01B00F164
:1033400007081498007800B1012000EB0A010198E9
:1033500001EBE07105984144401A401E0590E003DE
:1033600006D45B462146179A059800F05DF805449F
:103370001498007818B15A46179990476D1CE003CD
:1033800024D55B462146179A059800F04DF8054470
:103390001CE00498002807DBDDE90301884203DD17
:1033A0000098405C179901E0179930205A469047E1
:1033B000049805F10105401C04900198401E0190FD
:1033C00004D12E205A46179990476D1CBAF100017E
:1033D000AAF1010ADDDC05E017F8010B5A4617993E
:1033E00090476D1CB8F10001A8F10108F4DC5B46C0
:1033F0002146179A0598ABE62D0000002B0000002F
:10340000200000002DE9F041044600251E46174625
:10341000880404D405E039462020B0476D1C641EA2
:10342000F9D52846BDE8F0812DE9F0410446002594
:103430001E469046C80301D5302700E020278804A7
:1034400004D505E041463846B0476D1C641EF9D5E9
:103450002846BDE8F0810A68531C0B601070704765
:1034600003E00921491E89B2FCD2401E80B2F8D285
:103470007047014600200A0A62F3070061F30F203B
:10348000704700BA7047000013B54FF6FF73012272
:1034900069460248FEF748FD00981CBD5C0200200A
:1034A0002DE9F0470024804626464FF00109114FD0
:1034B0001AE000BFC4EBC40101EB4105D8F80100DC
:1034C00005F1090101446A1D0988104489B20068A8
:1034D000FDF7CCFC30B9D8F80100415D09FA01F0E4
:1034E000304386B2641CE4B23878A042E2D8304659
:1034F000BDE8F0875200002048B1420707D000F035
:103500000700C0F10800884203D300207047082953
:10351000FBD90120704730B5002248B9501E30BD9C
:103520008B1A0344845C13F8015D85541C70521C93
:10353000B2EB510FF4D3002030BD00002DE9F0476D
:103540000D4606004FF0000453D0002D51D000F07E
:1035500017FA074628783178884203D02CA0FFF765
:10356000DDFA012468787178884203D02DA0FFF736
:10357000D5FA0124D5F80200D6F80210884203D00B
:103580002FA0FFF7CBFA0124A87BB17B884203D0A0
:1035900030A0FFF7C3FA0124E87BF17BDFF8CC8091
:1035A00041F27079884203D031A0FFF7B7FA0124C5
:1035B000D6F80610D5F80600FCF7CCFE08D0D8F8EF
:1035C0000800391A494503D32EA0FFF7A7FA0124B2
:1035D000D6F80A10D5F80A00FCF7BCFE10D0D8F8CF
:1035E0000800391A49450BD32BA0FFF797FA01249D
:1035F00007E02EA0FFF792FA4FF0FF30BDE8F0870A
:103600001CB100F0BDF9C8F808002046F6E700003C
:1036100076616C7565446F6F72204368616E676593
:10362000640A000076616C7565456C656374726947
:1036300063697479204368616E6765640A000000FD
:1036400076616C756546616E204368616E6765647E
:103650000A00000076616C75654169725761726E8F
:10366000204368616E6765640A000000380000202E
:1036700076616C756546697265204368616E676541
:10368000640A000076616C756568756D6920436831
:10369000616E6765640A000076616C756574656DBE
:1036A00070204368616E6765640A000067697A4349
:1036B0006865636B5265706F7274204572726F72C9
:1036C000202C20496C6C6567616C20506172616DC3
:1036D0000A0000002DE9F84317460C46050045D0C6
:1036E000F4B3EFB3287804F10106C0074FF00108E6
:1036F00010D0217811206B1C885520780021401CA7
:10370000207001220846CDF8008001F05BF800B17E
:10371000012038702878800710D5217812200122E6
:10372000885520786B1C401C207011460020CDF875
:10373000008001F047F800B1012078702878400738
:1037400011D5217813206B1C885520780322401C4A
:10375000207002210020CDF8008001F033F800E055
:1037600004E0C7F802000020BDE8F88302A0FFF7DC
:10377000D5F94FF0FF30F7E767697A44617461501B
:103780006F696E74324576656E74204572726F7221
:10379000202C20496C6C6567616C20506172616DF2
:1037A0000A000000F8B504000D464FF0FF361DD0AA
:1037B000E5B100202870687120780B460021009048
:1037C0000122084600F0D6FF6078012200902B46C7
:1037D0001146002000F0CEFFD4F80200062807D3DF
:1037E0001EA000BFFFF79AF93046F8BD26A0F9E702
:1037F00000902B4603220221002000F0BBFFA07B9B
:1038000000902B46012200210520A41D00F0B2FFEC
:10381000607A012200902B461146052000F0AAFF95
:1038200001212846FFF777FE0121681DFFF773FE8F
:10383000214E22680021304601F00EF880B2FFF7D9
:1038400018FE25F8010F62681C49304601F004F8A3
:1038500080B2FFF70EFE68800020F8BD5B45525233
:103860004F525D2076616C756546616E20457272BF
:103870006F72202C20496C6C6567616C204F7665F7
:1038800072737465700A000067697A4461746150EC
:103890006F696E7473325265706F727444617461D3
:1038A000204572726F72202C20496C6C6567616CC8
:1038B00020506172616D0A00CDCCCC3D000020C269
:1038C0002DE9F041074600F05BF81E4904468846A2
:1038D0003846FFF733FE1B4D163D012811D11AA0C3
:1038E000FFF71CF929463846FFF75CFF20B906228E
:1038F0002946042000F0DAFE102239464046FCF743
:1039000043FC1748B4FBF0F100FB1140002816D12E
:10391000144EF068A04212D013A0FFF7FFF829461A
:103920003846FFF73FFF20B906222946042000F061
:10393000BDFE102239464046FCF726FCF460BDE887
:10394000F0810000FC0300206368616E6765642CF1
:10395000207265706F727420646174610A000000E7
:10396000C027090038000020496E666F3A203630C3
:103970003053207265706F727420646174610A0044
:1039800001480069704700002400002010B5134C66
:1039900094F84400012819D194F84300022816D263
:1039A000FFF7EEFFD4F86210401AC8280ED9FFF7CF
:1039B000E7FF14F8433F0146D4F81F2008A0FFF7A3
:1039C000ADF800F09FFD2078401C207010BD03482A
:1039D0002321BDE810404330FCF7EFBB2C0300204F
:1039E0005761726E696E673A67697A50726F746F69
:1039F000636F6C526573656E644461746120256405
:103A00002025642025640A003EB5F8B101680091C4
:103A1000406801909DF80400401C8DF804000520CA
:103A2000FFF727FDADF802000921684600F0A4FD6C
:103A30008DF808000921684601F090FD040003D5C7
:103A4000014605A0FFF76AF820463EBD09A0FFF732
:103A500065F84FF0FF303EBD4552523A2075617215
:103A600074207772697465206572726F72202564A4
:103A7000200A00004552523A2067697A50726F74EA
:103A80006F636F6C436F6D6D6F6E41636B2064612C
:103A9000746120697320656D707479200A000000DC
:103AA0003EB50D46040021D0684600F0B5F912205D
:103AB0008DF8040060798DF805000620FFF7D9FC29
:103AC000ADF802008DF808500A21684600F054FD58
:103AD0008DF809000A21684601F040FD040003D575
:103AE000014605A0FFF71AF820463EBD09A0FFF7E2
:103AF00015F84FF0FF303EBD4552523A20756172C5
:103B000074207772697465206572726F7220256403
:103B1000200A000067697A50726F746F636F6C459A
:103B200072726F72436D64204572726F72202C2026
:103B3000496C6C6567616C20506172616D0A0000B0
:103B400010B59EB004004FD0684600F065F9022021
:103B50008DF8040060798DF8050026A02022D0E9B8
:103B60000010CDE9021026A1D1E90001CDE9040140
:103B700026A0D0E90010CDE9081027A1D1E9000165
:103B8000CDE9060127A10AA8FCF7FEFA20222EA102
:103B90000DF15200FCF7F8FA0020CDF84A00CDF8FC
:103BA0004E009DF8510040F002008DF851000020B9
:103BB000FFF75FFCADF848006F20FFF75AFCADF847
:103BC00002007321684600F0D7FC8DF87200732163
:103BD000684601F0C3FC040003D5014623A0FEF7AC
:103BE0009DFF20461EB010BD27A0FEF797FF4FF0A7
:103BF000FF30F7E730303030303030340000000034
:103C0000303030303030303200000000303330336C
:103C1000303030300000000030333031303130305F
:103C2000000000003063336538643036383261613B
:103C300034396663613762356666663137623532BC
:103C4000643434360000000032376130316138347A
:103C500039373563343763623961363665306536F6
:103C60003766393438623365000000004552523AF5
:103C70002075617274207772697465206572726F45
:103C800072202564200A000067697A50726F746F91
:103C9000636F6C476574446576696365496E666FEA
:103CA000204572726F72202C20496C6C6567616CC4
:103CB00020506172616D0A002DE9F84F4FF0000647
:103CC00090460C465FEA000A35464FF0FF390ED0A9
:103CD0006CB1B8F1000F0AD0504601F02EFB10F085
:103CE000FF0707D04FF0FF0BDFF8F89055E03EA03C
:103CF000FEF714FF4846BDE8F88F0122694650469A
:103D000001F051FBF0B399F80100FF2805D19DF8AF
:103D10000000FF2807D0552833D099F800104846F6
:103D200001291BD02DE099F80010484661B1818827
:103D3000042926D9A94224D084F800B084F801B01F
:103D40000221A9F804101CE084F800B084F801B046
:103D500002218180012189F8001012E080889DF8FD
:103D600000202254401C80B2A9F80400042808D97D
:103D70006088FFF77EFB001D85B2B9F80400A842F9
:103D80000DD000E008E09DF8001089F8011099F8C6
:103D90000210491C89F80210761CBE42ADDBB9F84E
:103DA00004104E4604291AD9A94218D1204600F021
:103DB000E3FBB288A11811F8011C81420CD1214605
:103DC0002A460846FCF7E0F9A8F8005000203070B9
:103DD000B080B07070708EE76FF001008BE701204B
:103DE00089E700003800002067697A50726F746FAD
:103DF000636F6C4765744F6E655061636B657420CB
:103E00004572726F72202C20496C6C6567616C2062
:103E1000506172616D0A000010B538B10021016077
:103E20004160FF2101704170002010BD02A0FEF72B
:103E300075FE4FF0FF3010BD4552523A2067697A47
:103E400050726F746F636F6C48656164496E69741A
:103E5000206865616420697320656D707479200A3B
:103E6000000000002DE9F0438FB0984617465FEA46
:103E7000010906464FF0000525D0B8F1010F2AD000
:103E8000781D84B223462A46394628A0FEF746FE0E
:103E9000FF208DF800008DF80100200A8DF8020047
:103EA0008DF803403079401C8DF8040070798DF84E
:103EB000050000208DF8060008208DF80780B8F175
:103EC000010F0CD016E023A0FEF728FE4FF0FF30C4
:103ED0000FB0BDE8F083357AE819801DD1E78DF881
:103EE00008502A4606F109010DF10900FCF74CF9CA
:103EF00005F109006D4627B128443A464946FCF7CA
:103F000043F9211D684600F037FB2919C870211DAF
:103F1000684601F023FB010005D514A0FEF7FEFD65
:103F20006FF00100D4E70020D2E700006C656E203E
:103F30003D202564202C20734469644C656E203D2F
:103F4000202564202C646174615F6C656E203D20C7
:103F500025640A005B4552525D2020646174612033
:103F60004973204E756C6C200A00000075617274F4
:103F7000207772697465206572726F7220256420E3
:103F80000A0000002DE9F05F0C000A9D94F8008003
:103F90001F4616464FF0FF3B03D017B10DB120B1BD
:103FA00051E02AA0FEF7BAFD25E0344815218246EB
:103FB000FCF703F94046DFF8C4804FF00009A8F190
:103FC0006608012806D04FF0030A02280CD0052805
:103FD00039D120E0294A51465A32601CFFF77AFB5A
:103FE000012188F800102CE02449543101F1160019
:103FF000FFF7D8FB10B15846BDE8F09F1F481A30B4
:10400000D0F83A1047F8011FC08FB88007F801AC0C
:104010000720286017E01948721E611C4A38FCF717
:10402000B3F84046761EC8F83760144910F8663F6A
:10403000491C10225A5410F81F19491CC17700F866
:1040400047ACC5F800900020D6E7000067697A50B9
:10405000726F746F636F6C49737375656450726FC0
:1040600063657373204572726F72202C20496C6CEB
:104070006567616C20506172616D0A0092030020D7
:104080002DE9F041060031D03089FFF7F2F98C4F6D
:1040900030818C4C38784FF00208C0F38001307AC0
:1040A00004F17C05C0F38002914241D042074FF0F9
:1040B00000014FEAC07020D550B194F87B00415503
:1040C00094F87B00401C84F87B007FA0FEF726FD5F
:1040D000307A80072CD594F87B100120485594F84D
:1040E0007B00401C84F87B007FA01FE085A0FEF7CA
:1040F00015FD4FF0FF30BDE8F08150B194F87B0022
:10410000415594F87B00401C84F87B006EA0FEF7BC
:1041100005FD307A80070BD594F87B1001F80580F7
:1041200094F87B00401C84F87B0082A0FEF7F6FC2C
:104130003878317AC0F3C003C1F3C00293421BD078
:1041400062F3C300387008070AD594F87B10032087
:10415000485594F87B00401C84F87B007CA009E063
:1041600094F87B100420485594F87B00401C84F898
:104170007B007FA0FEF7D2FC3878317AC0F30013C1
:10418000C1F3001293421BD062F304103870C806CA
:104190000AD594F87B100520485594F87B00401C04
:1041A00084F87B007AA009E094F87B10062048553B
:1041B00094F87B00401C84F87B007DA0FEF7AEFCE9
:1041C0003978307AC1F34013C0F3401293421BD0C8
:1041D00062F34511397080060AD594F87B100720E8
:1041E000485594F87B00401C84F87B0079A009E0D6
:1041F00094F87B100820485594F87B00401C84F804
:104200007B007BA0FEF78AFC7878717AC0F3C0034C
:10421000C1F3C00293421BD062F3C3007870080759
:104220000AD594F87B100B20485594F87B00401C6D
:1042300084F87B0076A009E094F87B100C204855A8
:1042400094F87B00401C84F87B0078A0FEF766FCA5
:104250007878727AC0F30013C2F300118B421BD03E
:1042600061F304107870D0060AD594F87B10092009
:10427000485594F87B00401C84F87B0073A009E04B
:1042800094F87B100A20485594F87B00401C84F871
:104290007B0075A0FEF742FC14F87B1F0D204855EB
:1042A0002078401C2070707A00F0070184F86510B7
:1042B00074A0FEF733FC04F87B8C00201BE70000A1
:1042C0003E0000202C0300204F6E426F6172646933
:1042D0006E673A20536F66744150206F72205765A5
:1042E00062206D6F64650A004F6E426F617264698F
:1042F0006E673A204169724C696E6B206D6F646520
:104300000A00000067697A50726F746F636F6C4DBA
:104310006F64756C65537461747573204572726F48
:1043200072202C20496C6C6567616C205061726151
:104330006D0A00004F6E426F617264696E673A20C9
:1043400053746174696F6E206D6F64650A000000BC
:1043500057694669207374617475733A20696E20D9
:1043600062696E64696E67206D6F64650A000000A3
:1043700057694669207374617475733A206F757458
:104380002062696E64696E67206D6F64650A000063
:1043900057694669207374617475733A20636F6E50
:1043A0006E656374656420726F757465720A0000CF
:1043B00057694669207374617475733A2064697330
:1043C000636F6E6E656374656420726F7574657279
:1043D0000A00000057694669207374617475733A66
:1043E00020636F6E6E6563746564206D326D0A00C4
:1043F00057694669207374617475733A20646973F0
:10440000636F6E6E6563746564206D326D0A0000C3
:1044100057694669207374617475733A20617070CE
:1044200020636F6E6E6563740A0000005769466909
:10443000207374617475733A206E6F206170702000
:10444000636F6E6E6563740A000000005769466909
:10445000207374617475733A20696E207465737487
:10446000206D6F64650A00005769466920737461A6
:104470007475733A206F75742074657374206D6F52
:1044800064650A0052535349206973202564200A49
:104490000000000010B518B314498268134C41F8AD
:1044A000612FC2684A60028A0A81807C803C8872DF
:1044B000B4F8E1007134FEF7DCFFA4F87000A06FDF
:1044C000FEF7DFFFA067E27F04F120000E21115408
:1044D000E07F401CE077042004F8710C002010BD40
:1044E00003A0FEF71BFB4FF0FF3010BDAC03002014
:1044F0004552523A204E545020697320656D7074B5
:1045000079200A0010B50D4C94F84400002813D00F
:104510000BA0FEF703FBB4F8601004F1450001F0B6
:104520001DF8B4F86010814202D00DA0FEF7F6FA33
:10453000FFF726FAC4F8620010BD00002C0300202B
:104540005761726E696E673A2074696D656F757434
:104550002C20726573656E642064617461200A00AA
:104560004552523A20726573656E642064617461CD
:10457000206572726F720A0010B503004FF00000E0
:1045800003D011B10222491E05E0002010BD9C5C41
:10459000521C2044C0B28A42F9D310BD70B50C46FB
:1045A000050016D023210E48FBF707FE0C482246D3
:1045B0002946801CFBF7E8FD094D0120433DA5F885
:1045C000604005F8440FFFF7DBF9C5F81E00002036
:1045D00070BD04A0FEF7A2FA4FF0FF3070BD0000DE
:1045E0006F0300204552523A206461746120697360
:1045F00020656D707479200A0000000010B50A492A
:1046000058B109790079491C814204D10648232117
:10461000801EFBF7D2FD002010BD04A0FEF77EFA3D
:104620004FF0FF3010BD0000710300204552523A98
:10463000206461746120697320656D707479200A4B
:104640000000000070B50C464FF0FF3560B10A461F
:104650000146064800F0E6FEA04204D004A000BFD8
:10466000FEF75CFA284670BD08A0F9E75A0400205E
:104670004552523A204661696C656420746F20721D
:10468000625772697465200A000000004552523A70
:104690002067697A50757444617461206275662080
:1046A000697320656D707479200A00007FB5164625
:1046B0000C0005462DD06846FFF7AEFB05208DF8AF
:1046C00004001A4850F83B3F8DF805305B1C03602E
:1046D0008DF808500C20FEF7CCFEADF802003246F3
:1046E00021460DF10900FBF74FFD10216846FFF749
:1046F00043FF8DF80F001021684600F02FFF0400E3
:104700000DD501460AA0FEF709FA6FF0010004B0CA
:1047100070BD0EA0FEF702FA4FF0FF30F7E7102150
:104720006846FFF73BFF2046F1E700002C0300201E
:104730004552523A2075617274207772697465200F
:104740006572726F72202564200A000067697A52D0
:1047500065706F727444617461204572726F72206B
:104760002C20496C6C6567616C20506172616D0A28
:104770000000000070B50E46049D04464BB1114682
:104780003046FEF7B9FE06F0070128B1012808D02F
:1047900016E04FF0FF3070BD185D8D40284318556E
:1047A0000EE0EAB2C1F10806F240FF20F0402840D6
:1047B0001D1988406E7816436E701A5D02431A55B3
:1047C000002070BD2DE9F0438DB01546149F894639
:1047D000064600244FF0FF38DBB1D7B13A46194600
:1047E0006846FBF7D1FC012F05D939466846FEF72C
:1047F00092FE401C0DD029464846FEF77DFE020081
:1048000068464FF0FF0309F0070106D0012A0BD0DC
:1048100017E040460DB0BDE8F083845DC5F10800A7
:10482000CC40C3401C400CE08219805D5478C1F13B
:104830000802AD1AC5F10805EB401C40C840944081
:1048400004432046E6E7000002480169491C016173
:10485000704700002400002010B504461046FBF706
:1048600009FD2146FBF70CFDBDE81040FBF74BBDF1
:104870002DE9FF470C4606004FF0000507D034B184
:10488000DFF8FC804FF0010AA9463E4F73E04FF07D
:10489000FF3004B0BDE8F08770194078142868D262
:1048A000DFE800F06767676767676767676767677D
:1048B0006749505D4C0A1A2A217888F8001032A006
:1048C000FEF72CF998F80000012802D0C7F80C90E8
:1048D0004FE0C7F80CA04CE0617888F8011030A0D8
:1048E000FEF71CF998F80100012802D0C7F80890DB
:1048F0003FE0C7F808A03CE0D4F80210C8F8021066
:104900002EA0FEF70BF9D8F80200062810D2DFE837
:1049100000F00F0306080A0CC7F804A029E00220E3
:1049200004E0032002E0042000E00520786020E09D
:10493000C7F804901DE0217825A018E027A0FEF715
:10494000EDF816E02079A2796179A3688DE80F006F
:10495000E378A278218826A0FEF7E0F809E02FA0EE
:10496000FEF7DCF832A0FEF7D9F8217834A0FEF784
:10497000D5F86D1CEDB23078A8428DD8002088E7BC
:104980001C030020240000204576743A204556453B
:104990004E545F446F6F72202564200A00000000AF
:1049A0004576743A204556454E545F456C656374B0
:1049B000726963697479202564200A004576743A27
:1049C000204556454E545F46616E2025640A00001E
:1049D000525353492025640A000000005452414EAE
:1049E00053504152454E545F44415441200A000007
:1049F000574946495F4E5450203A205B25642D2587
:104A0000642D256420253032643A253032643A25FD
:104A10003032645D5B25645D200A00004D4F4455D3
:104A20004C4520494E464F202E2E2E0A00000000F5
:104A3000574946204D4F44554C45202E2E2E0A00F6
:104A40006D6F64756C6554797065203A205B2564E0
:104A50005D200A002DE9F0474FF0000592B05FEAB3
:104A6000000AADF804502E46A9462F4610950ED0E8
:104A7000FEF78CFF834C01AA611C04F59770FFF7C9
:104A80001BF904F1ED0850B1801C70D0AEE07EA09F
:104A9000FEF744F84FF0FF3012B0BDE8F08784A075
:104AA000FEF73CF8FEF76CFF0146BDF8042085A038
:104AB000FEF734F806E06019417887A0FEF72EF87B
:104AC0006D1CADB2BDF804008542F4D384A0FEF79E
:104AD00025F86079651C0F284ED00ADC0E2816D206
:104AE000DFE800F0151B151F1515463A151546157C
:104AF000463E182859D006DC112877D014284FD00C
:104B0000162804D134E0222857D02A2830D0022198
:104B10002846FEF7C5FF73A066E02846FFF710F8A9
:104B200064E0EA79A97975A0FDF7F8FF10A8009074
:104B3000BDF80400E119C21B02AB48460931093A2D
:104B4000FFF720FA002851D1EB7902A92846109AE4
:104B5000FFF788F96DA047E02846FEF755FF45E0CE
:104B60002846FEF751FF2846FFF78AFA3EE047E065
:104B70002846FFF743FD39E02846FEF745FF66A0CB
:104B8000FDF7CCFFFEF7FCFE05464FF4167700BF9D
:104B9000FEF7F6FE401BB842FAD900F0C9FB25E04B
:104BA0002846FFF72BFD61A01EE02846FFF726FDF3
:104BB0002846FFF76FFC65A016E02846FFF71EFDAC
:104BC000412205F108014046FBF7DEFA2D4894F832
:104BD000A520A6300F21115494F8A500401C84F89C
:104BE000A500052020705FA0FDF798FF254D2078D7
:104BF000663506282BD2DFE800F02A0D17222F3A5F
:104C0000601C0121FEF74CFF5DA0FDF787FF6FF0F0
:104C1000010041E71B4926701022C0312846FFF7EA
:104C200027FE1521284607E016490122E0312670AB
:104C3000A1F16500044616E0FBF7BFFA07E0114951
:104C40002670D4F837201C312846FFF711FE504655
:104C5000FEF736FE00201FE70A492670E131A1F178
:104C600051000C220446FFF703FE152108E0054819
:104C70002670A530412241460446FFF7F9FD412147
:104C80002046D9E72C03002047697A776974734876
:104C9000616E646C65204572726F72202C20496CC5
:104CA0006C6567616C20506172616D0A00000000E4
:104CB000476574204F6E65205061636B6574210AEF
:104CC0000000000057694669324D43555B25346446
:104CD0003A2534645D3A2000253032782000000007
:104CE0000A0000004552523A20636D6420636F64ED
:104CF00065206572726F72210A000000666C616740
:104D0000202578202578200A0000000041636B44AC
:104D1000617461203A200A007265706F72743A4DB6
:104D20004355207265626F6F74210A0041636B20E6
:104D300050524F44554354494F4E5F4D4F444520C8
:104D400073756363657373200A00000041636B2011
:104D50004745545F555454207375636365737320DE
:104D60000A00000041636B204745545F4D6F647536
:104D70006C652073756363657373200A000000001F
:104D80004552523A20636865636B2073756D2065E8
:104D900072726F72210A00000B4810B53621016053
:104DA00000F11001C16000F0F5FA50B107A000BF9A
:104DB000FDF7B4FEBDE810404FF497710848FBF7CB
:104DC000FCB908A0F4E700005A04002072624372A4
:104DD00065617465204661696C64200A000000000A
:104DE0002C03002072624372656174652053756301
:104DF00063657373200A0000F0B506460025364C43
:104E0000092787B0062E60D2DFE806F0030D0D35C6
:104E1000555A6846FFF700F80B2030E001462FA0F6
:104E2000FDF77CFE44E003A8FEF7F6FF8DF8107056
:104E300054F83B0F8DF81100401C20608DF8146071
:104E40000620FEF716FBADF80E000A2103A8FFF7B7
:104E500093FB8DF815000A2103A800F07FFB0500E5
:104E600003D501461DA0FDF759FE0A210DF10C00E6
:104E7000FFF794FB2CE06846FEF7CEFF13208DF879
:104E8000040054F83B0F8DF80500401C20600520FD
:104E9000FEF7EFFAADF8020009216846FFF76CFB58
:104EA0008DF808000921684600F058FB0500B5D4CC
:104EB00009216846DCE76846FEF7AEFF1520DEE70D
:104EC0006846FEF7A9FF2920D9E70BA0FDF726FECB
:104ED00007B02846F0BD00002C0300204552523A8E
:104EE0002075617274207772697465206572726FC3
:104EF00072202564200A00004552523A204366671A
:104F00004D6F6465206572726F72210A00000000A7
:104F100010B504A0FDF702FEBDE810400120FFF728
:104F20006BBF00004B455931205052455353204C24
:104F30004F4E47202C536F66742041500A000000EA
:104F400010B504A0FDF7EAFDBDE810400320FFF70F
:104F500053BF00004B455931205052455353202C2C
:104F600050726F64756374696F6E204D6F64650A6B
:104F70000000000010B505A0FDF7D0FD0020FFF7F0
:104F80003BFFBDE81040022000F03ABB4B455932D0
:104F9000205052455353204C4F4E47202C576966A2
:104FA00069205265736574206D6F64650A000000A6
:104FB00010B505A0FDF7B2FD0220FFF71DFFBDE80B
:104FC0001040032000F01CBB2D2D2D2D2D2D3E4B10
:104FD0004559322050524553532C416972204C6937
:104FE0006E6B206D6F64650A0D0000002DE9F041C5
:104FF0000746002600F05EFA050034D0A8044FF002
:10500000010413D415E000BFD7F80120C6EBC60099
:1050100000EB4001535C04FA03F0284204D00D3148
:105020005018006800B18047761CF6B23878B0425C
:10503000EAD8280417D5002612E000BFD7F80120CF
:10504000C6EBC60000EB4001535C04FA03F02842B3
:1050500004D011315018006800B18047761CF6B2B8
:105060003878B042EAD8BDE8F081000000B589B0D8
:1050700014491548CDE900014FF48063134A00211B
:1050800002A800F02FF8152202A91148FBF77CF8BE
:1050900010491148CDE900012023104A002102A83F
:1050A00000F020F80A48152202A91530FBF76CF829
:1050B0000B490748C1F8010009B008465DF804EB48
:1050C00000F030B8114F0008414F000800100140B7
:1050D000A0040020754F0008B14F0008000C0140EB
:1050E0005200002030B587B0DDE90A45CDF8011047
:1050F0000B49CDF80520CDF80930CA78521CCA708A
:105100008DF80020CDF81150CDF80D400A78521CD2
:105110000A7015226946FBF737F807B030BD00006A
:1051200048000020002806D00349097801700C29A6
:1051300001D90C21017070474800002010B53220C1
:10514000FBF786FD302000F041F80520FBF780FDDD
:10515000302000F03BF80120FBF77AFD302000F012
:1051600035F80A20FBF774FD202000F02FF80A2004
:10517000FBF76EFD282000F029F80120FBF768FD01
:10518000082000F023F80120FBF762FD012000F069
:105190001DF80120FBF75CFD0120FBF759FD0620FF
:1051A00000F014F80120FBF753FDBDE810400C207F
:1051B00000F00CB810B1012805D102E041F08001E7
:1051C00001E041F0C001C8B2AFF3008000F0F0018F
:1051D00008B541F00C028DF8002041F008010001F3
:1051E0008DF8011040F00C018DF8021040F008001D
:1051F0008DF803006A4604214E20FCF7A5FF08BD88
:1052000000F0F00108B541F00D028DF8002041F0EA
:10521000090100018DF8011040F00D018DF8021018
:1052200040F009008DF803006A4604214E20FCF787
:105230008BFF08BD10B5044602E0641CFFF7E0FFD9
:1052400020780028F9D110BD0024FBF727FEFDF7D8
:105250006DF9FCF793FFFDF70FF9FDF707F8FDF780
:1052600039F8FDF769F8FDF79BF8FDF721F9FDF72F
:105270003BF9FBF73FFB2348FCF724FAFBF77EFBE7
:10528000FFF75CFF2048FCF71DFA00211F48FCF7E0
:1052900029FC04211D48FCF725FC4FF47A7500BF5A
:1052A000FBF7EEFD011BA94227D9044600F0B4F933
:1052B000174EB068FBF73BF802460B4615A106F106
:1052C0001000FDF73BFC01210020FFF773FF06F102
:1052D0001000FFF7AFFFF068FBF729F802460B4616
:1052E0000FA106F17400FDF729FC01210846FFF724
:1052F00061FF06F17400FFF79DFF0C48FFF7AAFB62
:10530000CEE70000CC0100203C0100201402002068
:105310006400002068756D693A252E316600000032
:1053200074656D703A252E31660000001C03002064
:10533000012080F31388FBF741BE00B5010006D0C1
:105340004A688868824205D14FF0000000BD4FF0E6
:10535000FF3000BD02D2A0EB020000BD084600F005
:1053600013F84A688968511A401A00BD00B5010057
:1053700007D000F009F803460846FFF7DEFF181AC9
:1053800000BD4FF0FF3000BD08B1006870474FF01E
:10539000FF30704720B1C1684160816000207047D4
:1053A0004FF0FF3070472DE9F041040015460F46DD
:1053B0004FF0FF3020D0002F1ED06068A1688842D7
:1053C000204609D2FFF7B9FFA84203D82046FFF7CD
:1053D000B4FF0546616807E0FFF7D6FF6168E26841
:1053E0008A1A801AA84209D92A463846FAF7CCFE0A
:1053F0006068284460602846BDE8F0812046FFF7D9
:10540000C3FF6168E2688A1A861A32463846FAF79C
:10541000BBFEE0686060AA1BB9192046FFF7C3FF16
:105420003044E9E72DE9F04115460F46040008D065
:105430003FB1FFF79BFFA84206D86FF00100BDE81F
:10544000F0814FF0FF30FAE76168A068814229D807
:105450002046FFF799FF0146A068E268821A8E1A7B
:10546000B54212D82A463946FAF78EFEA06828447B
:10547000A0602046FFF788FF0146E068A26801446B
:10548000914200D1A0602846D9E732463946FAF762
:105490007BFEE068A060AA1BB9192046FFF7C2FF97
:1054A0003044CCE72A463946FAF76EFEA068284415
:1054B000E8E7000070B5204C012600252179491C41
:1054C000C9B221711E2902D32571667002E061788C
:1054D00001292ED16570FDF7E3FFA17831B10129D3
:1054E00008D002290ED0032923D11FE008B3208160
:1054F000A6701EE02189884202D10220A07018E027
:10550000A57016E02189884204D0A570E58041F499
:10551000005070BDE188491C89B2E180642908D33C
:10552000E5800321A17040F4004070BD21898842CC
:10553000E6D1002070BD0000480000200148FCF7C3
:10554000C1B8000084010020012202490248FCF792
:10555000A9BC0000240000209C020020F8B5050032
:105560001CA00E4600684FF00004009013D1601E8E
:10557000F8BD2919322301221748FCF7D5FC022C6B
:1055800008D3285DFF2805D132230122694612483D
:10559000FCF7CAFC641CB442EBD3104832460169E4
:1055A0000FA0FDF7BBFA00240DE0295D11A0FDF767
:1055B000B5FA022C06D3285DFF2803D155210DA092
:1055C000FDF7ACFA641CB442EFD30CA0FDF7A6FAC9
:1055D0003046F8BD550000009C0200202400002049
:1055E0004D435532576946695B2534643A25346426
:1055F0005D3A200025303278200000000A000000CB
:10560000022803D0032801D0042801D101490870E1
:1056100070470000580000202DE9F0411148FBF7C9
:1056200003FA114C30B90F488168C4F80610C068FD
:10563000C4F80A000D4F08213846FBF717FC012576
:10564000002650B184F80F604FF400713846FBF724
:105650000DFC20B1A673BDE8F081E573F4E7A573F6
:10566000F9E70000640000201C030020000C01404A
:1056700010210148FAF7A1BD1C0300200000000022
:1056800000000000010203040607080900000000F2
:1056900001020304B456000800000020640000006A
:1056A000842B000818570008640000206C080000D4
:1056B000942B000800000000000000000000000023
:1056C00000000000000000000100000010000000C9
:1056D000000000000024F4000000000000000000B2
:1056E00000000000000000000000000000000000BA
:1056F000000000000000000000000000000000FFAB
:105700000000000000000000000000000000000099
:08571000000000000000000091
:0400000508000131BD
:00000001FF
